:100000000EC015C014C013C012C011C010C00FC064
:100010000EC00DC00CC00BC00AC009C008C011241E
:100020001FBECFE5D2E0DEBFCDBF99D1B8C1E8CFCA
:10003000CF93DF93EB01FC01C115D10509F45BC03F
:10004000219131914191B8E0AFB7F894C09A37FD52
:1000500001C0C09837FD00C0000000000000000093
:1000600000000000330FBA95C09881F7B7E0C09A3E
:1000700027FD01C0C09827FD00C00000000000005F
:10008000000000000000220FBA95C09881F7000020
:10009000C09A27FD01C0C09827FD00C000000000E5
:1000A000000021913191B7E0C09800000000C09A93
:1000B00047FD01C0C09847FD00C0000000000000DF
:1000C000000000000000440FBA95C09881F70000BE
:1000D000C09A47FD01C0C09847FD00C00000000065
:1000E000B8E0219719F04191C098B0CF0000C098B6
:1000F00000000000AFBFDF91CF910895ACE0B0E009
:10010000E3E8F0E03AC1B89AC098FE0131968CE07D
:10011000DF011D928A95E9F7CF0164E070E088DF86
:1001200080E197E220E931E0F9013197F1F7019799
:10013000D9F700E010E06E010894C11CD11C90E4D6
:10014000E92E9CE9F92E89818F5F89838D818F5FEC
:100150008D8389858F5F89878A858F5F8A87C601AE
:1001600064E070E065DFC7010197F1F70F5F1F4F93
:100170000F3F110541F700E010E06E010894C11C2B
:10018000D11C80E4E82E8CE9F82E15C08A818F5F9F
:100190008A838E818F5F8E838F818F5F8F838B8524
:1001A0008F5F8B87C60164E070E042DFC701019773
:1001B000F1F70F5F1F4F0F3F110544F300E010E010
:1001C0008981815089838D8181508D8388858F5F5E
:1001D00088878A8581508A87C60164E070E028DFBD
:1001E000C7010197F1F70F5F1F4F0F3F110541F74F
:1001F00000E010E08B818F5F8B838C818F5F8C831D
:100200008F8181508F83888581508887898581502F
:1002100089878C858F5F8C87C60164E070E008DF7A
:10022000C7010197F1F70F5F1F4F0F3F110511F73E
:1002300000E010E08A8181508A838D818F5F8D83F9
:100240008F818F5F8F838B8581508B87C60164E0A0
:1002500070E0EEDEC7010197F1F70F5F1F4F0F3F10
:10026000110541F700E010E089818F5F89838C815F
:1002700081508C838D8181508D838E8181508E83BE
:1002800088858F5F88878A858F5F8A87C60164E04B
:1002900070E0CEDEC7010197F1F70F5F1F4F0F3FF0
:1002A000110511F700E010E08A818F5F8A838C814D
:1002B0008F5F8C838F8181508F838B858F5F8B873E
:1002C000C60164E070E0B4DEC7010197F1F70F5F8B
:1002D0001F4F0F3F110541F700E010E08981815069
:1002E00089838A8181508A838B8181508B838D8120
:1002F0008F5F8D8389858F5F89878A8581508A8703
:100300008B8581508B878C8581508C87C60164E0FA
:1003100070E08EDEC7010197F1F70F5F1F4F0F3FAF
:100320001105E1F600E010E089818F5F89838C81FF
:1003300081508C838885815088878A858F5F8A87E2
:10034000C60164E070E074DEC7010197F1F70F5F4A
:100350001F4F0F3F110541F700E010E02CCFCEDE1C
:1003600080E090E008952F923F924F925F926F92BB
:100370007F928F929F92AF92BF92CF92DF92EF9235
:10038000FF920F931F93CF93DF93CDB7DEB7CA1BB6
:10039000DB0B0FB6F894DEBF0FBECDBF0994F89407
:0203A000FFCF8D
:00000001FF
