:100000000EC020C01FC01EC01DC01CC01BC01AC017
:1000100019C018C017C016C015C014C013C01124D1
:100020001FBECFE5D2E0DEBFCDBF10E0A0E6B0E05E
:10003000E8E9F3E002C005900D92A636B107D9F7C2
:1000400011D1A8C1DDCFCF93DF93EB01FC01C11526
:10005000D10509F45BC0219131914191B8E0AFB76E
:10006000F894C09A37FD01C0C09837FD00C0000069
:1000700000000000000000000000330FBA95C09897
:1000800081F7B7E0C09A27FD01C0C09827FD00C0E6
:10009000000000000000000000000000220FBA95E0
:1000A000C09881F70000C09A27FD01C0C09827FDC5
:1000B00000C000000000000021913191B7E0C0981D
:1000C00000000000C09A47FD01C0C09847FD00C075
:1000D000000000000000000000000000440FBA957E
:1000E000C09881F70000C09A47FD01C0C09847FD45
:1000F00000C000000000B8E0219719F04191C098BD
:10010000B0CF0000C09800000000AFBFDF91CF91DA
:100110000895FC01CB0163E070E0CCD0E80FF91F3B
:1001200080E88083118212820895FC01CB0163E094
:1001300070E0C0D0E80FF91F108280E8818312823E
:100140000895FC01CB0163E070E0B4D0E80FF91F23
:100150001082118280E882830895EF92FF920F93BC
:100160001F93CF93DF93F82EE92E8B01C0E0D0E0F0
:10017000CE0163E070E0B0D0FC01EE0FFF1FE00F96
:10018000F11F0190F081E02D8F2D9E2DBE0109956C
:100190002196C430D10561F78F2D9E2D60E070E06F
:1001A00052DF88E293E220E931E0F9013197F1F77B
:1001B0000197D9F78F2D9E2D9C01F90180E090E0E9
:1001C0001082118212820196339684309105C1F714
:1001D0008F2D9E2D60E070E036DF88EE93E020E901
:1001E00031E0F9013197F1F70197D9F7CDB7DEB7D3
:1001F000E6E0ADC00F931F93182F092FFB0101906C
:10020000F081E02D60E070E00995812F902F60E093
:1002100070E019DF88E293E220E931E0F9013197DB
:10022000F1F70197D9F7812F902F9C01F90180E018
:1002300090E01082118212820196339684309105EB
:10024000C1F7812F902F60E070E0FDDE88EE93E033
:1002500020E931E0F9013197F1F70197D9F71F91C2
:100260000F910895A2E1B0E0E7E3F1E054C0B89A3D
:10027000C0981F82188619861A861B861C861D86C2
:100280001E861F86188A198A1A8ADE011196E0E6F0
:10029000F0E086E001900D928150E1F797E0E92EC1
:1002A000F12CEC0EFD1E8E010F5F1F4FC701B80130
:1002B000A1DFFCCF5527002480FF02C0060E571F88
:1002C000660F771F6115710521F096958795009748
:1002D00099F7952F802D089597FB092E07260AD0B0
:1002E00077FD04D043D006D000201AF470956195B4
:1002F0007F4F0895F6F7909581959F4F08952F921F
:100300003F924F925F926F927F928F929F92AF92A5
:10031000BF92CF92DF92EF92FF920F931F93CF93F2
:10032000DF93CDB7DEB7CA1BDB0B0FB6F894DEBF89
:100330000FBECDBF09942A88398848885F846E84AF
:100340007D848C849B84AA84B984C884DF80EE80F9
:10035000FD800C811B81AA81B981CE0FD11D0FB602
:10036000F894DEBF0FBECDBFED010895AA1BBB1BE5
:1003700051E107C0AA1FBB1FA617B70710F0A61BA5
:10038000B70B881F991F5A95A9F780959095BC01C6
:08039000CD010895F894FFCFA0
:060398008900A1009500A0
:00000001FF
