:100000000EC015C014C013C012C011C010C00FC064
:100010000EC00DC00CC00BC00AC009C008C011241E
:100020001FBECFE5D2E0DEBFCDBF68D0C4C0E8CFF1
:10003000CF93DF93EB01FC01C115D10509F45BC03F
:10004000219131914191B8E0AFB7F894C09A37FD52
:1000500001C0C09837FD00C0000000000000000093
:1000600000000000330FBA95C09881F7B7E0C09A3E
:1000700027FD01C0C09827FD00C00000000000005F
:10008000000000000000220FBA95C09881F7000020
:10009000C09A27FD01C0C09827FD00C000000000E5
:1000A000000021913191B7E0C09800000000C09A93
:1000B00047FD01C0C09847FD00C0000000000000DF
:1000C000000000000000440FBA95C09881F70000BE
:1000D000C09A47FD01C0C09847FD00C00000000065
:1000E000B8E0219719F04191C098B0CF0000C098B6
:1000F00000000000AFBFDF91CF910895A6E3B0E00C
:10010000E3E8F0E042C0B89AC09800E010E07E0159
:100110000894E11CF11C27E3822E912C8C0E9D1E6D
:1001200090E4A92E9CE9B92E80E9C82E81E0D82E52
:1001300015C0008301830A30110514F4128201C036
:1001400082833396E815F905A1F7C70162E170E0F3
:100150006FDFC5010197F1F70F5F1F4F0F3F1105CB
:1001600024F4F701802F8150E4CF80E29EE4F60171
:100170003197F1F70197D9F700E010E0EFCF2F9218
:100180003F924F925F926F927F928F929F92AF9227
:10019000BF92CF92DF92EF92FF920F931F93CF9374
:1001A000DF93CDB7DEB7CA1BDB0B0FB6F894DEBF0B
:0A01B0000FBECDBF0994F894FFCFF5
:00000001FF
